:020000040800F2
:1000000000280020D9110008691100086F110008AC
:10001000751100087B110008811100080000000024
:100020000000000000000000000000008711000830
:1000300093110008000000009F110008AB11000898
:1000400021120008211200082112000821120008C4
:1000500021120008211200082112000821120008B4
:1000600021120008211200082112000821120008A4
:100070002112000821120008211200082112000894
:100080002112000821120008211200082112000884
:100090002112000821120008211200082112000874
:1000A0002112000821120008211200082112000864
:1000B000B9110008211200080000000021120008F8
:1000C00021120008000000000000000021120008BA
:1000D00000000000211200082112000800000000AA
:1000E000211200082112000821120008000000005F
:1000F0000000000000000000000000000000000000
:0C01000000000000000000005FF808F1A3
:10010C0010B5054C237833B9044B13B10448AFF345
:10011C0000800123237010BD280000200000000087
:10012C003C28000808B5034B1BB103490348AFF347
:10013C00008008BD000000002C0000203C280008B6
:10014C0080B582B000AF01F067F800F083F800F0E2
:10015C00BDF800F007F9364801F0A6FF642000F066
:10016C0029FF192000F03AFF322000F04BFF00234A
:10017C007B60304B1B68002B2CD0642000F01AFFE6
:10018C002D4B1B6801332C4A136010212B4801F0B6
:10019C0045FB294B1B683B2B07DD274B00221A60C4
:1001AC00274B1B680133264A1360254B1B683B2BDE
:1001BC0007DD234B00221A60224B1B680133214AB6
:1001CC001360204B1B68172B02DD1E4B00221A609C
:1001DC0000F066FB1C4B1B68002B12D0192000F0A2
:1001EC00FDFE1A4B1B680422934202DB174B0022C4
:1001FC001A60164B1B685A1C14490A60184600F00A
:10020C00C3FA134B1B68002BB3D0322000F0FAFE5C
:10021C007B68072B01DD00237B60786800F080FB96
:10022C00786800F017FD7B6801337B60A1E700BFA5
:10023C006000002048000020180000200008014049
:10024C00140000201000002050000020440000206A
:10025C005800002080B590B000AF07F11803282299
:10026C000021184602F0DCFA3B1D00221A605A608D
:10027C009A60DA601A610223BB610123BB6210230E
:10028C00FB6200237B6307F11803184601F0E0FAC8
:10029C000346002B01D000F087FE0F237B60002368
:1002AC00BB600023FB6000233B6100237B613B1D93
:1002BC000021184601F04CFD0346002B01D000F044
:1002CC0073FE00BF4037BD4680BD000080B586B0D0
:1002DC0000AF07F1080300221A605A609A60DA60D6
:1002EC003B4600221A605A601D4B4FF080421A6048
:1002FC001B4B41F63F725A60194B00229A60184B07
:10030C000922DA60164B00221A61154B00229A6101
:10031C00134801F079FE0346002B01D000F044FE97
:10032C004FF48053BB6007F1080319460C4802F0E8
:10033C000FF80346002B01D000F036FE00233B6083
:10034C0000237B603B461946054802F0DBF9034667
:10035C00002B01D000F028FE00BF1837BD4680BD31
:10036C006000002080B586B000AF07F108030022C2
:10037C001A605A609A60DA60224B9B69214A43F0FA
:10038C00040393611F4B9B6903F004037B607B6840
:10039C001C4B9B691B4A43F008039361194B9B69E7
:1003AC0003F008033B603B6800224FF6FC711648D3
:1003BC0001F01CFA01224FF67F71144801F016FA75
:1003CC004FF6FC73BB600123FB6000233B610223EF
:1003DC007B6107F1080319460B4801F08DF84FF6C5
:1003EC007F73BB600123FB6000233B6102237B61B5
:1003FC0007F108031946054801F07EF800BF1837CD
:10040C00BD4680BD0010024000080140000C0140B8
:10041C0080B582B000AF786000F008FE00BF0837EE
:10042C00BD4680BD80B582B000AF78607B68092B7B
:10043C0000F2808101A252F823F000BF7104000881
:10044C00B9040008010500084905000891050008D9
:10045C00D90500082106000869060008B106000845
:10046C00F906000800220121C64801F0BFF900225C
:10047C000221C44801F0BAF900220421C14801F05C
:10048C00B5F900220821BF4801F0B0F90022102173
:10049C00BC4801F0ABF900222021BA4801F0A6F9C2
:1004AC0001224021B74801F0A1F967E101220121A5
:1004BC00B44801F09BF900220221B24801F096F9F0
:1004CC0000220421AF4801F091F901220821AD4826
:1004DC0001F08CF901221021AA4801F087F90122C0
:1004EC002021A84801F082F901224021A54801F001
:1004FC007DF943E100220121A24801F077F90022A5
:10050C000221A04801F072F9012204219D4801F05A
:10051C006DF9002208219B4801F068F90022102196
:10052C00984801F063F901222021964801F05EF908
:10053C0000224021934801F059F91FE100220121CA
:10054C00904801F053F9002202218E4801F04EF937
:10055C00002204218B4801F049F900220821894826
:10056C0001F044F901221021864801F03FF90122E3
:10057C002021844801F03AF900224021814801F001
:10058C0035F9FBE0012201217E4801F02FF9002210
:10059C0002217C4801F02AF900220421794801F05B
:1005AC0025F901220821774801F020F901221021B8
:1005BC00744801F01BF900222021724801F016F951
:1005CC00002240216F4801F011F9D7E000220121EF
:1005DC006C4801F00BF9012202216A4801F006F97E
:1005EC0000220421674801F001F900220821654826
:1005FC0001F0FCF801221021624801F0F7F800220A
:10060C002021604801F0F2F8002240215D4801F001
:10061C00EDF8B3E0002201215A4801F0E7F801227D
:10062C000221584801F0E2F800220421554801F05B
:10063C00DDF800220821534801F0D8F800221021DF
:10064C00504801F0D3F8002220214E4801F0CEF89A
:10065C00002240214B4801F0C9F88FE00022012113
:10066C00484801F0C3F800220221464801F0BEF8C8
:10067C0000220421434801F0B9F801220821414825
:10068C0001F0B4F8012210213E4801F0AFF801222C
:10069C0020213C4801F0AAF801224021394801F000
:1006AC00A5F86BE000220121364801F09FF80022EA
:1006BC000221344801F09AF800220421314801F05B
:1006CC0095F8002208212F4801F090F80022102103
:1006DC002C4801F08BF8002220212A4801F086F8E2
:1006EC0000224021274801F081F847E00022012137
:1006FC00244801F07BF800220221224801F076F810
:10070C00002204211F4801F071F8002208211D4825
:10071C0001F06CF8012210211A4801F067F8002250
:10072C002021184801F062F800224021154801F000
:10073C005DF823E001220121124801F057F8012253
:10074C000221104801F052F8012204210D4801F059
:10075C004DF8012208210B4801F048F80122102124
:10076C00084801F043F801222021064801F03EF828
:10077C0001224021034801F039F800BF00BF0837BF
:10078C00BD4680BD000C014080B582B000AF7860E2
:10079C007B68032B7AD801A252F823F0B907000822
:1007AC00F107000829080008610800080022402110
:1007BC00394801F01BF801228021374801F016F866
:1007CC0001224FF48071344801F010F801224FF4EB
:1007DC000071314801F00AF8304B1B681846FFF7DE
:1007EC0021FE54E0012240212B4800F0FFFF0022A3
:1007FC008021294800F0FAFF01224FF4807126482D
:10080C0000F0F4FF01224FF40071234800F0EEFFDA
:10081C00224B5B681846FFF705FE38E001224021A9
:10082C001D4800F0E3FF012280211B4800F0DEFF91
:10083C0000224FF48071184800F0D8FF01224FF4C9
:10084C000071154800F0D2FF144B9B681846FFF757
:10085C00E9FD1CE0012240210F4800F0C7FF0122F6
:10086C0080210D4800F0C2FF01224FF480710A482C
:10087C0000F0BCFF00224FF40071074800F0B6FFF7
:10088C00064BDB681846FFF7CDFD00E000BF00BF4C
:10089C000837BD4680BD00BF0008014000000020A5
:1008AC0080B400AF1A4B1B681A4A82FB03129210D9
:1008BC00DB17D31A184A1360154B1968154B83FBB9
:1008CC0001239A10CB17D21A13469B0013445B00DA
:1008DC00CA1A114B5A60114B1B680E4A82FB031249
:1008EC009210DB17D31A0C4A93600C4B1968094B06
:1008FC0083FB01239A10CB17D21A13469B00134487
:10090C005B00CA1A044BDA6000BFBD4680BC70475E
:10091C0010000020676666660000002014000020AE
:10092C0080B582B000AF78607B68072B00F28C81B9
:10093C0001A252F823F000BF65090008C3090008A2
:10094C00210A00087F0A0008DD0A00083B0B00089A
:10095C00990B0008F70B000801220421BC4800F099
:10096C0045FF00220821BA4800F040FF00224FF456
:10097C008061B74800F03AFF00224FF40061B448A0
:10098C0000F034FF00224FF48051B14800F02EFFEC
:10099C0000224FF40051AE4800F028FF00224FF423
:1009AC008041AB4800F022FF00224FF40041A848E0
:1009BC0000F01CFF48E100220421A54800F016FFBE
:1009CC0001220821A24800F011FF00224FF480619F
:1009DC009F4800F00BFF00224FF400619C4800F090
:1009EC0005FF00224FF48051994800F0FFFE0022D1
:1009FC004FF40051964800F0F9FE00224FF480416C
:100A0C00934800F0F3FE00224FF40041904800F0B0
:100A1C00EDFE19E1002204218D4800F0E7FE0022D2
:100A2C0008218B4800F0E2FE01224FF480618848D7
:100A3C0000F0DCFE00224FF40061854800F0D6FE89
:100A4C0000224FF48051824800F0D0FE00224FF477
:100A5C0000517F4800F0CAFE00224FF480417C48D0
:100A6C0000F0C4FE00224FF40041794800F0BEFEB5
:100A7C00EAE000220421764800F0B8FE00220821AA
:100A8C00734800F0B3FE00224FF48061704800F010
:100A9C00ADFE01224FF400616D4800F0A7FE00226C
:100AAC004FF480516A4800F0A1FE00224FF400512F
:100ABC00674800F09BFE00224FF48041644800F030
:100ACC0095FE00224FF40041614800F08FFEBBE020
:100ADC00002204215E4800F089FE002208215C48B7
:100AEC0000F084FE00224FF48061594800F07EFE35
:100AFC0000224FF40061564800F078FE01224FF4BA
:100B0C008051534800F072FE00224FF400515048BF
:100B1C0000F06CFE00224FF480414D4800F066FE60
:100B2C0000224FF400414A4800F060FE8CE00022A5
:100B3C000421474800F05AFE00220821444800F0E6
:100B4C0055FE00224FF48061414800F04FFE002218
:100B5C004FF400613E4800F049FE00224FF48051F2
:100B6C003B4800F043FE01224FF40051384800F09E
:100B7C003DFE00224FF48041354800F037FE002244
:100B8C004FF40041324800F031FE5DE000220421B8
:100B9C002F4800F02BFE002208212D4800F026FEE5
:100BAC0000224FF480612A4800F020FE00224FF40E
:100BBC000061274800F01AFE00224FF480512448AF
:100BCC0000F014FE00224FF40051214800F00EFEFC
:100BDC0001224FF480411E4800F008FE00224FF421
:100BEC0000411B4800F002FE2EE0002204211848B0
:100BFC0000F0FCFD00220821154800F0F7FD002252
:100C0C004FF48061124800F0F1FD00224FF40061B6
:100C1C000F4800F0EBFD00224FF480510C4800F01F
:100C2C00E5FD00224FF40051094800F0DFFD0022E1
:100C3C004FF48041064800F0D9FD01224FF40041E9
:100C4C00034800F0D3FD00BF00BF0837BD4680BD90
:100C5C000008014080B582B000AF78607B68072B3C
:100C6C0000F29C8101A252F823F000BF990C0008FD
:100C7C00FB0C00085D0D0008BF0D0008210E0008DC
:100C8C00830E0008E50E0008470F000800224FF401
:100C9C008071C44800F0AAFD00224FF40071C148D5
:100CAC0000F0A4FD00224FF48061BE4800F09EFDD0
:100CBC0000224FF40061BB4800F098FD00224FF475
:100CCC008051B84800F092FD00224FF40051B54815
:100CDC0000F08CFD00224FF48041B24800F086FDFC
:100CEC0000224FF40041AF4800F080FD56E1002295
:100CFC004FF48071AB4800F079FD00224FF4007185
:100D0C00A84800F073FD01224FF48061A54800F063
:100D1C006DFD01224FF40061A24800F067FD012235
:100D2C004FF480519F4800F061FD01224FF40051B7
:100D3C009C4800F05BFD01224FF48041994800F083
:100D4C0055FD01224FF40041964800F04FFD25E17E
:100D5C0000224FF48071934800F048FD01224FF4BB
:100D6C000071904800F042FD01224FF480618D48E3
:100D7C0000F03CFD01224FF400618A4800F036FD82
:100D8C0001224FF48051874800F030FD01224FF4CE
:100D9C000051844800F02AFD01224FF48041814823
:100DAC0000F024FD01224FF400417E4800F01EFDAE
:100DBC00F4E001224FF480717A4800F017FD012213
:100DCC004FF40071774800F011FD00224FF4806160
:100DDC00744800F00BFD00224FF40061714800F0E4
:100DEC0005FD01224FF480516E4800F0FFFC0122FA
:100DFC004FF400516B4800F0F9FC00224FF4804195
:100E0C00684800F0F3FC00224FF40041654800F004
:100E1C00EDFCC3E001224FF48071624800F0E6FC67
:100E2C0001224FF400715F4800F0E0FC00224FF407
:100E3C0080615C4800F0DAFC00224FF400615948F4
:100E4C0000F0D4FC01224FF48051564800F0CEFC47
:100E5C0001224FF40051534800F0C8FC00224FF41B
:100E6C008041504800F0C2FC00224FF400414D4834
:100E7C0000F0BCFC92E000224FF48071494800F075
:100E8C00B5FC01224FF40071464800F0AFFC012282
:100E9C004FF48061434800F0A9FC01224FF400613B
:100EAC00404800F0A3FC01224FF480513D4800F073
:100EBC009DFC01224FF400513A4800F097FC0122AE
:100ECC004FF48041374800F091FC01224FF400416F
:100EDC00344800F08BFC61E000224FF48071314803
:100EEC0000F084FC00224FF400712E4800F07EFCD0
:100EFC0001224FF480612B4800F078FC01224FF462
:100F0C000061284800F072FC01224FF48051254802
:100F1C0000F06CFC01224FF40051224800F066FCFA
:100F2C0001224FF480411F4800F060FC01224FF475
:100F3C0000411C4800F05AFC30E000224FF4807154
:100F4C00184800F053FC00224FF40071154800F0D3
:100F5C004DFC00224FF48061124800F047FC002247
:100F6C004FF400610F4800F041FC00224FF4805117
:100F7C000C4800F03BFC00224FF40051094800F0F3
:100F8C0035FC00224FF48041064800F02FFC002273
:100F9C004FF40041034800F029FC00BF00BF0837A4
:100FAC00BD4680BD000C014080B400AF72B600BFDE
:100FBC00FEE7000080B483B000AF7860054A7B6820
:100FCC001360054B00221A6000BF0C37BD4680BC75
:100FDC00704700BF4C0000204800002080B483B054
:100FEC0000AF7860054A7B681360054B00221A60DD
:100FFC0000BF0C37BD4680BC704700BF54000020BA
:10100C005000002080B483B000AF7860054A7B6844
:10101C001360054B00221A6000BF0C37BD4680BC24
:10102C00704700BF5C0000205800002080B400AF67
:10103C00194B1B68002B0BDD174B1B68013B164A29
:10104C001360154B1B68002B02DC144B01221A6039
:10105C00134B1B68002B0BDD114B1B68013B104A1B
:10106C0013600F4B1B68002B02DC0E4B01221A6025
:10107C000D4B1B68002B0BDD0B4B1B68013B0A4A0D
:10108C001360094B1B68002B02DC084B01221A6011
:10109C0000BFBD4680BC70474C00002048000020BB
:1010AC0054000020500000205C000020580000205C
:1010BC0080B485B000AF154B9B69144A43F0010313
:1010CC009361124B9B6903F00103BB60BB680F4B30
:1010DC00DB690E4A43F08053D3610C4BDB6903F0A0
:1010EC0080537B607B680A4B5B68FB60FB6823F07A
:1010FC00E063FB60FB6843F08063FB60044AFB68C1
:10110C00536000BF1437BD4680BC704700100240CE
:10111C000000014080B584B000AF78607B681B682C
:10112C00B3F1804F13D10C4BDB690B4A43F0010335
:10113C00D361094BDB6903F00103FB60FB68002200
:10114C0000211C2000F0A1F91C2000F0BAF900BF0E
:10115C001037BD4680BD00BF0010024080B400AF08
:10116C00FEE780B400AFFEE780B400AFFEE780B4CA
:10117C0000AFFEE780B400AFFEE780B400AF00BF65
:10118C00BD4680BC704780B400AF00BFBD4680BC7C
:10119C00704780B400AF00BFBD4680BC704780B5BF
:1011AC0000AF00F07FF800BF80BD000080B500AF3D
:1011BC00024800F0C5FF00BF80BD00BF60000020EA
:1011CC0080B400AF00BFBD4680BC7047FFF7F8FF8E
:1011DC000B480C490C4A002302E0D458C450043389
:1011EC00C4188C42F9D3094A094C002301E013605E
:1011FC000432A242FBD301F0EFFAFEF7A1FF7047D5
:10120C000000002028000020802800082800002072
:10121C00AC000020FEE7000080B500AF084B1B6857
:10122C00074A43F010031360032000F023F90F204A
:10123C0000F008F8FFF73CFF0023184680BD00BF04
:10124C000020024080B582B000AF7860124B1A6863
:10125C00124B1B7819464FF47A73B3FBF1F3B2FBC4
:10126C00F3F3184600F03BF90346002B01D00123A1
:10127C000EE07B680F2B0AD8002279684FF0FF3004
:10128C0000F003F9064A7B681360002300E0012399
:10129C0018460837BD4680BD1C00002024000020E5
:1012AC002000002080B400AF054B1B781A46054B7C
:1012BC001B681344034A136000BFBD4680BC7047D3
:1012CC0024000020A800002080B400AF024B1B6853
:1012DC001846BD4680BC7047A800002080B485B07D
:1012EC0000AF78607B6803F00703FB600C4BDB6896
:1012FC00BB60BA684FF6FF031340BB60FB681A0271
:10130C00BB68134343F0BF6343F40033BB60044A30
:10131C00BB68D36000BF1437BD4680BC704700BFAC
:10132C0000ED00E080B400AF044BDB681B0A03F057
:10133C0007031846BD4680BC704700BF00ED00E0B7
:10134C0080B483B000AF0346FB7197F90730002BD4
:10135C000BDBFB7903F01F02064997F907305B0999
:10136C00012000FA02F241F8232000BF0C37BD46E1
:10137C0080BC704700E100E080B483B000AF03464E
:10138C003960FB7197F90730002B0ADB3B68DAB246
:10139C000C4997F907301201D2B20B4483F80023A1
:1013AC000AE03B68DAB20849FB7903F00F03043B0F
:1013BC001201D2B20B441A7600BF0C37BD4680BC6A
:1013CC00704700BF00E100E000ED00E080B489B0A0
:1013DC0000AFF860B9607A60FB6803F00703FB614B
:1013EC00FB69C3F10703042B28BF0423BB61FB6912
:1013FC000433062B02D9FB69033B00E000237B611D
:10140C004FF0FF32BB6902FA03F3DA43BB681A40B0
:10141C007B699A404FF0FF317B6901FA03F3D943A2
:10142C007B680B40134318462437BD4680BC70477D
:10143C0080B582B000AF78607B68013BB3F1807FF0
:10144C0001D301230FE00A4A7B68013B53600F2153
:10145C004FF0FF30FFF790FF054B00229A60044BD2
:10146C0007221A60002318460837BD4680BD00BF0E
:10147C0010E000E080B582B000AF78607868FFF7CC
:10148C002DFF00BF0837BD4680BD80B586B000AFCC
:10149C000346B9607A60FB7300237B61FFF742FF60
:1014AC0078617A68B9687869FFF790FF024697F916
:1014BC000F3011461846FFF75FFF00BF1837BD46C7
:1014CC0080BD80B582B000AF0346FB7197F9073041
:1014DC001846FFF735FF00BF0837BD4680BD80B505
:1014EC0082B000AF78607868FFF7A2FF0346184619
:1014FC000837BD4680BD000080B48BB000AF78606B
:10150C00396000237B6200233B6248E101227B6A45
:10151C0002FA03F3FB613B681B68FA691340BB6179
:10152C00BA69FB699A4240F037813B685B68A34A11
:10153C0093425ED0A14A934275D8A14A934258D0A7
:10154C009F4A93426FD89F4A934252D09D4A9342EE
:10155C0069D89D4A93424CD09B4A934263D89B4A8C
:10156C00934246D0994A93425DD8122B2AD8122B1B
:10157C0059D801A252F823F0FF150008D91500081C
:10158C00EB1500082D16000833160008331600085A
:10159C0033160008331600083316000833160008FB
:1015AC0033160008331600083316000833160008EB
:1015BC00331600083316000833160008E11500082E
:1015CC00F5150008824A934213D02CE03B68DB6887
:1015DC003B6229E03B68DB6804333B6224E03B68F8
:1015EC00DB6808333B621FE03B68DB680C333B6213
:1015FC001AE03B689B68002B02D104233B6213E08A
:10160C003B689B68012B05D108233B627B68FA6918
:10161C001A6109E008233B627B68FA695A6103E0AE
:10162C0000233B6200E000BFBB69FF2B01D87B6845
:10163C0001E07B6804337B61BB69FF2B02D87B6ABA
:10164C009B0002E07B6A083B9B003B617B691A684C
:10165C000F213B6901FA03F3DB431A40396A3B69FA
:10166C0001FA03F31A437B691A603B685B6803F069
:10167C008053002B00F09080564B9B69554A43F0E9
:10168C0001039361534B9B6903F00103BB60BB687F
:10169C00514A7B6A9B08023352F82330FB607B6A09
:1016AC0003F003039B000F2202FA03F3DB43FA68F7
:1016BC001340FB607B68494A93420DD07B68484AD3
:1016CC00934207D07B68474A934201D1022304E03E
:1016DC00032302E0012300E000237A6A02F00302F4
:1016EC0092009340FA681343FB603B497B6A9B086A
:1016FC000233FA6841F823203B685B6803F48013DB
:10170C00002B06D0384B9A683749BB6913438B6062
:10171C0006E0354B9A68BB69DB43334913408B6059
:10172C003B685B6803F40013002B06D02E4BDA6881
:10173C002D49BB691343CB6006E02B4BDA68BB69C0
:10174C00DB4329491340CB603B685B6803F40033EF
:10175C00002B06D0244B5A682349BB6913434B60BA
:10176C0006E0214B5A68BB69DB431F4913404B60B1
:10177C003B685B6803F48033002B06D01A4B1A6865
:10178C001949BB6913430B6006E0174B1A68BB6918
:10179C00DB43154913400B607B6A01337B623B686A
:1017AC001A687B6A22FA03F3002B7FF4AFAE00BFFA
:1017BC0000BF2C37BD4680BC704700BF0000321004
:1017CC000000311000002210000021100000121047
:1017DC000000111000100240000001400008014000
:1017EC00000C0140001001400004014080B483B0A3
:1017FC0000AF78600B467B8013467B707B78002BA8
:10180C0003D07A887B681A6103E07B881A047B68B2
:10181C001A6100BF0C37BD4680BC704780B485B0E0
:10182C0000AF78600B467B807B68DB68FB607A8856
:10183C00FB6813401A04FB68D9437B880B401A439E
:10184C007B681A6100BF1437BD4680BC704700002E
:10185C0080B586B000AF78607B68002B01D1012386
:10186C006CE27B681B6803F00103002B00F087809F
:10187C00924B5B6803F00C03042B0CD08F4B5B6812
:10188C0003F00C03082B12D18C4B5B6803F48033F0
:10189C00B3F5803F0BD1894B1B6803F40033002B4D
:1018AC006CD07B685B68002B68D1012346E27B68B7
:1018BC005B68B3F5803F06D1804B1B687F4A43F4CD
:1018CC00803313602EE07B685B68002B0CD17B4B64
:1018DC001B687A4A23F480331360784B1B68774A71
:1018EC0023F4802313601DE07B685B68B3F5A02FA5
:1018FC000CD1724B1B68714A43F4802313606F4BFD
:10190C001B686E4A43F4803313600BE06B4B1B680F
:10191C006A4A23F480331360684B1B68674A23F4CC
:10192C00802313607B685B68002B13D0FFF7CCFC23
:10193C00386108E0FFF7C8FC02463B69D31A642BF8
:10194C0001D90323FAE15D4B1B6803F40033002B30
:10195C00F0D014E0FFF7B8FC386108E0FFF7B4FCF6
:10196C0002463B69D31A642B01D90323E6E1534B9E
:10197C001B6803F40033002BF0D100E000BF7B6840
:10198C001B6803F00203002B63D04C4B5B6803F025
:10199C000C03002B0BD0494B5B6803F00C03082B9A
:1019AC001CD1464B5B6803F48033002B16D1434BA0
:1019BC001B6803F00203002B05D07B681B69012B0D
:1019CC0001D00123BAE13D4B1B6823F0F8027B6880
:1019DC005B69DB00394913430B603AE07B681B6998
:1019EC00002B20D0364B01221A60FFF76DFC3861BA
:1019FC0008E0FFF769FC02463B69D31A022B01D9B8
:101A0C0003239BE12D4B1B6803F00203002BF0D04A
:101A1C002A4B1B6823F0F8027B685B69DB002749C3
:101A2C0013430B6015E0264B00221A60FFF74CFCA9
:101A3C00386108E0FFF748FC02463B69D31A022BD9
:101A4C0001D903237AE11D4B1B6803F00203002B21
:101A5C00F0D17B681B6803F00803002B3AD07B683D
:101A6C009B69002B19D0174B01221A60FFF72CFC35
:101A7C00386108E0FFF728FC02463B69D31A022BB9
:101A8C0001D903235AE10D4B5B6A03F00203002BCF
:101A9C00F0D0012000F09AFA1CE00A4B00221A60E8
:101AAC00FFF712FC38610FE0FFF70EFC02463B69B2
:101ABC00D31A022B08D9032340E100BF00100240C7
:101ACC0000004242800442429E4B5B6A03F00203D8
:101ADC00002BE9D17B681B6803F00403002B00F09A
:101AEC00A6800023FB75974BDB6903F08053002B1A
:101AFC000DD1944BDB69934A43F08053D361914BE6
:101B0C00DB6903F08053BB60BB680123FB758E4B14
:101B1C001B6803F48073002B18D18B4B1B688A4A0B
:101B2C0043F480731360FFF7CFFB386108E0FFF7D5
:101B3C00CBFB02463B69D31A642B01D90323FDE08E
:101B4C00814B1B6803F48073002BF0D07B68DB683F
:101B5C00012B06D17B4B1B6A7A4A43F001031362BB
:101B6C002DE07B68DB68002B0CD1764B1B6A754A29
:101B7C0023F001031362734B1B6A724A23F00403B4
:101B8C0013621CE07B68DB68052B0CD16D4B1B6A68
:101B9C006C4A43F0040313626A4B1B6A694A43F0B4
:101BAC00010313620BE0674B1B6A664A23F00103C7
:101BBC001362644B1B6A634A23F0040313627B6851
:101BCC00DB68002B15D0FFF77FFB38610AE0FFF7CD
:101BDC007BFB02463B69D31A41F28832934201D90E
:101BEC000323ABE0574B1B6A03F00203002BEED030
:101BFC0014E0FFF769FB38610AE0FFF765FB02466A
:101C0C003B69D31A41F28832934201D9032395E000
:101C1C004C4B1B6A03F00203002BEED1FB7D012B16
:101C2C0005D1484BDB69474A23F08053D3617B686D
:101C3C00DB69002B00F08180424B5B6803F00C03E6
:101C4C00082B61D07B68DB69022B46D13F4B00220D
:101C5C001A60FFF739FB386108E0FFF735FB0246E5
:101C6C003B69D31A022B01D9032367E0354B1B6860
:101C7C0003F00073002BF0D17B681B6AB3F5803F37
:101C8C0008D1304B5B6823F400327B689B682D498C
:101C9C0013434B602B4B5B6823F474127B68196AFB
:101CAC007B685B6A0B43274913434B60274B01222C
:101CBC001A60FFF709FB386108E0FFF705FB0246E5
:101CCC003B69D31A022B01D9032337E01D4B1B6848
:101CDC0003F00073002BF0D02FE01C4B00221A6095
:101CEC00FFF7F2FA386108E0FFF7EEFA02463B69BB
:101CFC00D31A022B01D9032320E0124B1B6803F0EB
:101D0C000073002BF0D118E07B68DB69012B01D14B
:101D1C00012313E00B4B5B68FB60FB6803F4803220
:101D2C007B681B6A9A4206D1FB6803F470127B68CD
:101D3C005B6A9A4201D0012300E000231846183751
:101D4C00BD4680BD00100240007000406000424261
:101D5C0080B584B000AF786039607B68002B01D10E
:101D6C000123D0E06A4B1B6803F007033A689A42E0
:101D7C0010D9674B1B6823F0070265493B68134376
:101D8C000B60634B1B6803F007033A689A4201D05F
:101D9C000123B8E07B681B6803F00203002B20D002
:101DAC007B681B6803F00403002B05D0594B5B6860
:101DBC00584A43F4E06353607B681B6803F00803E4
:101DCC00002B05D0534B5B68524A43F4605353606D
:101DDC00504B5B6823F0F0027B689B684D491343C2
:101DEC004B607B681B6803F00103002B40D07B68C1
:101DFC005B68012B07D1474B1B6803F40033002BA6
:101E0C0015D101237FE07B685B68022B07D1414B26
:101E1C001B6803F00073002B09D1012373E03D4BC9
:101E2C001B6803F00203002B01D101236BE0394B3B
:101E3C005B6823F003027B685B68364913434B6095
:101E4C00FFF742FAF8600AE0FFF73EFA0246FB6839
:101E5C00D31A41F28832934201D9032353E02D4B1C
:101E6C005B6803F00C027B685B689B009A42EBD1C9
:101E7C00274B1B6803F007033A689A4210D2244B95
:101E8C001B6823F0070222493B6813430B60204B6D
:101E9C001B6803F007033A689A4201D0012332E031
:101EAC007B681B6803F00403002B08D0194B5B689C
:101EBC0023F4E0627B68DB68164913434B607B6854
:101ECC001B6803F00803002B09D0124B5B6823F44A
:101EDC0060527B681B69DB000E4913434B6000F0BA
:101EEC0021F802460B4B5B681B0903F00F030A49F0
:101EFC00CB5C22FA03F3094A1360094B1B681846A2
:101F0C00FFF7A0F9002318461037BD4680BD00BF6F
:101F1C000020024000100240542800081C00002041
:101F2C002000002080B487B000AF0023FB600023AA
:101F3C00BB6000237B6100237B6000233B611E4B55
:101F4C005B68FB60FB6803F00C03042B02D0082BCE
:101F5C0003D027E0194B3B6127E0FB689B0C03F097
:101F6C000F03174AD35C7B60FB6803F48033002BB0
:101F7C0010D0114B5B685B0C03F00103114AD35C6E
:101F8C00BB607B680D4A02FB03F2BB68B2FBF3F348
:101F9C007B6104E07B680C4A02FB03F37B617B6989
:101FAC003B6102E0054B3B6100BF3B6918461C37A7
:101FBC00BD4680BC704700BF0010024000127A0082
:101FCC00642800087428000800093D0080B485B01E
:101FDC0000AF78600A4B1B680A4AA2FB03235B0A1A
:101FEC007A6802FB03F3FB6000BFFB685A1EFA60C1
:101FFC00002BF9D100BF00BF1437BD4680BC704721
:10200C001C000020D34D621080B582B000AF786008
:10201C007B68002B01D1012341E07B6893F83D30B4
:10202C00DBB2002B06D17B68002283F83C20786859
:10203C00FFF770F87B68022283F83D207B681A68F2
:10204C007B6804331946104600F06EFA7B68012257
:10205C0083F846207B68012283F83E207B680122AE
:10206C0083F83F207B68012283F840207B680122A3
:10207C0083F841207B68012283F842207B6801228F
:10208C0083F843207B68012283F844207B6801227B
:10209C0083F845207B68012283F83D2000231846F5
:1020AC000837BD4680BD000080B485B000AF7860B5
:1020BC007B6893F83D30DBB2012B01D0012335E076
:1020CC007B68022283F83D207B681B68DA687B689A
:1020DC001B6842F00102DA607B681B68164A934267
:1020EC0009D07B681B68B3F1804F04D07B681B68F8
:1020FC00124A934211D17B681B689B6803F007035B
:10210C00FB60FB68062B10D07B681B681A687B6829
:10211C001B6842F001021A6007E07B681B681A68B2
:10212C007B681B6842F001021A60002318461437C2
:10213C00BD4680BC704700BF002C0140000400402D
:10214C0080B582B000AF78607B681B681B6903F0B8
:10215C000203022B22D17B681B68DB6803F00203AD
:10216C00022B1BD17B681B686FF002021A617B6823
:10217C0001221A777B681B689B6903F00303002B11
:10218C0003D0786800F0B4F905E0786800F0A7F99E
:10219C00786800F0B6F97B6800221A777B681B68B8
:1021AC001B6903F00403042B22D17B681B68DB68DA
:1021BC0003F00403042B1BD17B681B686FF0040233
:1021CC001A617B6802221A777B681B689B6903F48F
:1021DC004073002B03D0786800F08AF905E078682A
:1021EC0000F07DF9786800F08CF97B6800221A7792
:1021FC007B681B681B6903F00803082B22D17B68E2
:10220C001B68DB6803F00803082B1BD17B681B6879
:10221C006FF008021A617B6804221A777B681B68CE
:10222C00DB6903F00303002B03D0786800F060F93E
:10223C0005E0786800F053F9786800F062F97B6883
:10224C0000221A777B681B681B6903F01003102BA4
:10225C0022D17B681B68DB6803F01003102B1BD1A9
:10226C007B681B686FF010021A617B6808221A7772
:10227C007B681B68DB6903F44073002B03D0786820
:10228C0000F036F905E0786800F029F9786800F07C
:10229C0038F97B6800221A777B681B681B6903F08E
:1022AC000103012B0ED17B681B68DB6803F0010373
:1022BC00012B07D17B681B686FF001021A617868EB
:1022CC00FEF7A6F87B681B681B6903F08003802B64
:1022DC000ED17B681B68DB6803F08003802B07D171
:1022EC007B681B686FF080021A61786800F06BFAEB
:1022FC007B681B681B6903F04003402B0ED17B6885
:10230C001B68DB6803F04003402B07D17B681B681C
:10231C006FF040021A61786800F0FCF87B681B686B
:10232C001B6903F02003202B0ED17B681B68DB6834
:10233C0003F02003202B07D17B681B686FF0200271
:10234C001A61786800F036FA00BF0837BD4680BDC8
:10235C0080B584B000AF786039600023FB737B6874
:10236C0093F83C30012B01D10223B4E07B680122AD
:10237C0083F83C207B68022283F83D207B681B6835
:10238C009B68BB60BB6823F07703BB60BB6823F41E
:10239C007F43BB607B681B68BA689A603B681B68AC
:1023AC00B3F5005F3ED0B3F5005F00F28780B3F564
:1023BC00805F00F08680B3F5805F7FD8702B1AD0D9
:1023CC00702B7BD8602B50D0602B77D8502B3CD007
:1023DC00502B73D8402B58D0402B6FD8302B64D057
:1023EC00302B6BD8202B60D0202B67D8002B5CD0E7
:1023FC00102B5AD062E07B6818683B6899683B6880
:10240C005A683B68DB6800F05EF97B681B689B6868
:10241C00BB60BB6843F07703BB607B681B68BA6822
:10242C009A604FE07B6818683B6899683B685A680B
:10243C003B68DB6800F047F97B681B689A687B682F
:10244C001B6842F480429A603CE07B6818683B68E9
:10245C0059683B68DB681A4600F0BEF87B681B685D
:10246C005021184600F015F92CE07B6818683B6881
:10247C0059683B68DB681A4600F0DCF87B681B681F
:10248C006021184600F005F91CE07B6818683B6871
:10249C0059683B68DB681A4600F09EF87B681B683D
:1024AC004021184600F0F5F80CE07B681A683B6890
:1024BC001B681946104600F0ECF803E00123FB738F
:1024CC0000E000BF7B68012283F83D207B6800227E
:1024DC0083F83C20FB7B18461037BD4680BD80B48A
:1024EC0083B000AF786000BF0C37BD4680BC70472E
:1024FC0080B483B000AF786000BF0C37BD4680BCA1
:10250C00704780B483B000AF786000BF0C37BD4615
:10251C0080BC704780B483B000AF786000BF0C37CC
:10252C00BD4680BC7047000080B485B000AF7860B9
:10253C0039607B681B68FB607B68254A934207D037
:10254C007B68B3F1804F03D07B68224A934208D159
:10255C00FB6823F07003FB603B685B68FA6813430D
:10256C00FB607B681A4A934207D07B68B3F1804FBB
:10257C0003D07B68174A934208D1FB6823F440735D
:10258C00FB603B68DB68FA681343FB60FB6823F075
:10259C0080023B685B691343FB607B68FA681A60D6
:1025AC003B689A687B68DA623B681A687B689A6257
:1025BC007B68074A934203D13B681A697B681A63AC
:1025CC007B6801225A6100BF1437BD4680BC70473E
:1025DC00002C01400004004080B487B000AFF860CC
:1025EC00B9607A60FB681B6A7B61FB681B6A23F02D
:1025FC000102FB681A62FB689B693B613B6923F033
:10260C00F0033B617B681B013A6913433B617B69B7
:10261C0023F00A037B617A69BB6813437B61FB6817
:10262C003A699A61FB687A691A6200BF1C37BD4629
:10263C0080BC704780B487B000AFF860B9607A6036
:10264C00FB681B6A7B61FB681B6A23F01002FB684A
:10265C001A62FB689B693B613B6923F470433B61E5
:10266C007B681B033A6913433B617B6923F0A0032E
:10267C007B61BB681B017A6913437B61FB683A6918
:10268C009A61FB687A691A6200BF1C37BD4680BC30
:10269C00704780B485B000AF786039607B689B6808
:1026AC00FB60FB6823F07003FB603A68FB68134324
:1026BC0043F00703FB607B68FA689A6000BF14372D
:1026CC00BD4680BC704780B487B000AFF860B9607D
:1026DC007A603B60FB689B687B617B6923F47F437A
:1026EC007B613B681A027B681A43BB6813437A69A7
:1026FC0013437B61FB687A699A6000BF1C37BD4647
:10270C0080BC704780B485B000AF786039607B685E
:10271C0093F83C30012B01D1022341E07B6801226C
:10272C0083F83C207B68022283F83D207B681B6881
:10273C005B68FB607B681B689B68BB60FB6823F075
:10274C007003FB603B681B68FA681343FB607B6893
:10275C001B68FA685A607B681B68144A934209D05C
:10276C007B681B68B3F1804F04D07B681B68104AF0
:10277C0093420CD1BB6823F08003BB603B685B6861
:10278C00BA681343BB607B681B68BA689A607B6845
:10279C00012283F83D207B68002283F83C20002333
:1027AC0018461437BD4680BC704700BF002C014052
:1027BC000004004080B483B000AF786000BF0C37D9
:1027CC00BD4680BC704780B483B000AF786000BF5A
:1027DC000C37BD4680BC704770B500260C4D0D4CB7
:1027EC00641BA410A64209D100F022F800260A4D61
:1027FC000A4C641BA410A64205D170BD55F8043BCD
:10280C0098470136EEE755F8043B98470136F2E756
:10281C007828000878280008782800087C28000808
:10282C0003460244934200D1704703F8011BF9E7B9
:10283C00F8B500BFF8BC08BC9E467047F8B500BFA1
:08284C00F8BC08BC9E46704771
:10285400000000000000000001020304060708094C
:1028640002030405060708090A0B0C0D0E0F1010CD
:04287400010200005D
:042878003101000822
:04287C000D01000842
:10288000010000000200000003000000040000003E
:102890000F00000008000000320000000024F400D7
:0828A00010000000010000001F
:04000005080011D905
:00000001FF
