:020000040800F2
:100000000028002095150008251500082B1500086C
:1000100031150008371500083D15000800000000E4
:100020000000000000000000000000004315000870
:100030004F150008000000005B1500086715000858
:10004000DD150008DD150008DD150008DD150008C8
:10005000DD150008DD150008DD150008DD150008B8
:10006000DD150008DD150008DD150008DD150008A8
:10007000DD150008DD150008DD150008DD15000898
:10008000DD150008DD150008DD150008DD15000888
:10009000DD150008DD150008DD150008DD15000878
:1000A000DD150008DD150008DD150008DD15000868
:1000B00075150008DD15000800000000DD150008BA
:1000C000DD1500080000000000000000DD1500083C
:1000D00000000000DD150008DD150008000000002C
:1000E000DD150008DD150008DD1500080000000022
:1000F0000000000000000000000000000000000000
:0C01000000000000000000005FF808F1A3
:10010C0010B5054C237833B9044B13B10448AFF345
:10011C0000800123237010BD30000020000000007F
:10012C00F82B000808B5034B1BB103490348AFF388
:10013C00008008BD0000000034000020F82B0008EF
:10014C0080B584B000AF01F045FA00F09FF800F0E4
:10015C00D9F800F023F9424802F084F9642001F048
:10016C0007F9192001F018F9322001F029F93D4A5C
:10017C003B1D92E8030083E803003B1D184601F089
:10018C00D1F80023FB60384B1B68002B2CD064206B
:10019C0001F0EEF8354B1B680133344A1360102123
:1001AC00334801F019FD314B1B683B2B07DD2F4BFE
:1001BC0000221A602F4B1B6801332E4A13602D4B03
:1001CC001B683B2B07DD2B4B00221A602A4B1B684C
:1001DC000133294A1360284B1B68172B02DD264B71
:1001EC0000221A6000F078FB244B1B68002B12D005
:1001FC00192001F0D1F8224B1B680422934202DB38
:10020C001F4B00221A601E4B1B685A1C1C490A60AB
:10021C00184600F0D5FA1B4B1B68002BB3D03220CC
:10022C0001F0CEF80822FB68934201DB0023FB604F
:10023C00154B1B680822934202DB134B00221A60F9
:10024C00FB685A1CFA60184600F086FB0E4B1B68C4
:10025C005A1C0D490A60184600F018FD93E700BFC0
:10026C006C000020102C0008540000201800002006
:10027C000008014014000020100000205C00002049
:10028C004C000020640000205000002080B590B08D
:10029C0000AF07F1180328220021184602F09EFC3B
:1002AC003B1D00221A605A609A60DA601A610223C0
:1002BC00BB610123BB621023FB6200237B6307F14C
:1002CC001803184601F0A2FC0346002B01D001F0E4
:1002DC0049F80F237B600023BB600023FB600023E5
:1002EC003B6100237B613B1D0021184601F00EFF92
:1002FC000346002B01D001F035F800BF4037BD4656
:10030C0080BD000080B586B000AF07F10803002265
:10031C001A605A609A60DA603B4600221A605A6092
:10032C001D4B4FF080421A601B4B41F63F725A60D6
:10033C00194B00229A60184B0922DA60164B0022E6
:10034C001A61154B00229A61134802F03BF80346E0
:10035C00002B01D001F006F84FF48053BB6007F17D
:10036C00080319460C4802F0D1F90346002B01D0C2
:10037C0000F0F8FF00233B6000237B603B461946EE
:10038C00054802F09DFB0346002B01D000F0EAFF6C
:10039C0000BF1837BD4680BD6C00002080B586B00C
:1003AC0000AF07F1080300221A605A609A60DA6005
:1003BC00224B9B69214A43F0040393611F4B9B69B9
:1003CC0003F004037B607B681C4B9B691B4A43F066
:1003DC0008039361194B9B6903F008033B603B686E
:1003EC0000224FF6FC71164801F0DEFB01224FF69D
:1003FC007F71144801F0D8FB4FF6FC73BB600123EE
:10040C00FB6000233B6102237B6107F10803194663
:10041C000B4801F04FFA4FF67F73BB600123FB6072
:10042C0000233B6102237B6107F108031946054851
:10043C0001F040FA00BF1837BD4680BD00100240E5
:10044C0000080140000C014080B582B000AF78601C
:10045C0000F0CAFF00BF0837BD4680BD80B582B032
:10046C0000AF78607B68092B00F2808101A252F802
:10047C0023F000BFA9040008F104000839050008A6
:10048C0081050008C9050008110600085906000876
:10049C00A1060008E9060008310700080022012126
:1004AC00C64801F081FB00220221C44801F07CFB0C
:1004BC0000220421C14801F077FB00220821BF482B
:1004CC0001F072FB00221021BC4801F06DFB0022F0
:1004DC002021BA4801F068FB01224021B74801F005
:1004EC0063FB67E101220121B44801F05DFB0022AE
:1004FC000221B24801F058FB00220421AF4801F060
:10050C0053FB01220821AD4801F04EFB01221021C2
:10051C00AA4801F049FB01222021A84801F044FB24
:10052C0001224021A54801F03FFB43E100220121BB
:10053C00A24801F039FB00220221A04801F034FB53
:10054C00012204219D4801F02FFB002208219B4829
:10055C0001F02AFB00221021984801F025FB012212
:10056C002021964801F020FB00224021934801F005
:10057C001BFB1FE100220121904801F015FB00221A
:10058C0002218E4801F010FB002204218B4801F05F
:10059C000BFB00220821894801F006FB01221021E7
:1005AC00864801F001FB01222021844801F0FCFA6D
:1005BC0000224021814801F0F7FAFBE001220121E1
:1005CC007E4801F0F1FA002202217C4801F0ECFA9D
:1005DC0000220421794801F0E7FA0122082177482A
:1005EC0001F0E2FA01221021744801F0DDFA002238
:1005FC002021724801F0D8FA002240216F4801F006
:10060C00D3FAD7E0002201216C4801F0CDFA012287
:10061C0002216A4801F0C8FA00220421674801F05F
:10062C00C3FA00220821654801F0BEFA012210210C
:10063C00624801F0B9FA00222021604801F0B4FAB6
:10064C00002240215D4801F0AFFAB3E00022012105
:10065C005A4801F0A9FA01220221584801F0A4FAE3
:10066C0000220421554801F09FFA0022082153482A
:10067C0001F09AFA00221021504801F095FA00225C
:10068C0020214E4801F090FA002240214B4801F005
:10069C008BFA8FE000220121484801F085FA0022F4
:1006AC000221464801F080FA00220421434801F05F
:1006BC007BFA01220821414801F076FA012210212F
:1006CC003E4801F071FA012220213C4801F06CFAFD
:1006DC0001224021394801F067FA6BE00022012128
:1006EC00364801F061FA00220221344801F05CFA2C
:1006FC0000220421314801F057FA002208212F482A
:10070C0001F052FA002210212C4801F04DFA00227F
:10071C0020212A4801F048FA00224021274801F004
:10072C0043FA47E000220121244801F03DFA00225F
:10073C000221224801F038FA002204211F4801F05E
:10074C0033FA002208211D4801F02EFA0122102153
:10075C001A4801F029FA00222021184801F024FA45
:10076C0000224021154801F01FFA23E0012201214B
:10077C00124801F019FA01220221104801F014FA72
:10078C00012204210D4801F00FFA012208210B4827
:10079C0001F00AFA01221021084801F005FA0122A1
:1007AC002021064801F000FA01224021034801F003
:1007BC00FBF900BF00BF0837BD4680BD000C0140EF
:1007CC0080B582B000AF78607B68032B7AD801A229
:1007DC0052F823F0F1070008290800086108000806
:1007EC009908000800224021394801F0DDF9012266
:1007FC008021374801F0D8F901224FF48071344838
:10080C0001F0D2F901224FF40071314801F0CCF91A
:10081C00304B1B681846FFF721FE54E001224021A3
:10082C002B4801F0C1F900228021294801F0BCF9C4
:10083C0001224FF48071264801F0B6F901224FF4E1
:10084C000071234801F0B0F9224B5B681846FFF7A2
:10085C0005FE38E0012240211D4801F0A5F90122D6
:10086C0080211B4801F0A0F900224FF48071184838
:10087C0001F09AF901224FF40071154801F094F936
:10088C00144B9B681846FFF7E9FD1CE00122402140
:10089C000F4801F089F9012280210D4801F084F9FB
:1008AC0001224FF480710A4801F07EF900224FF4C6
:1008BC000071074801F078F9064BDB681846FFF722
:1008CC00CDFD00E000BF00BF0837BD4680BD00BFB6
:1008DC00000801400000002080B400AF1A4B1B68D8
:1008EC001A4A82FB03129210DB17D31A184A1360B0
:1008FC00154B1968154B83FB01239A10CB17D21A91
:10090C0013469B0013445B00CA1A114B5A60114BDF
:10091C001B680E4A82FB03129210DB17D31A0C4A87
:10092C0093600C4B1968094B83FB01239A10CB176E
:10093C00D21A13469B0013445B00CA1A044BDA60AC
:10094C0000BFBD4680BC704710000020676666661D
:10095C00000000201400002080B582B000AF786049
:10096C007B68072B00F28C8101A252F823F000BFA8
:10097C009D090008FB090008590A0008B70A00087D
:10098C00150B0008730B0008D10B00082F0C000886
:10099C0001220421BC4801F007F900220821BA48C1
:1009AC0001F002F900224FF48061B74801F0FCF825
:1009BC0000224FF40061B44801F0F6F800224FF425
:1009CC008051B14801F0F0F800224FF40051AE48CC
:1009DC0001F0EAF800224FF48041AB4801F0E4F852
:1009EC0000224FF40041A84801F0DEF848E1002253
:1009FC000421A54801F0D8F801220821A24801F0F1
:100A0C00D3F800224FF480619F4801F0CDF800220A
:100A1C004FF400619C4801F0C7F800224FF480515C
:100A2C00994801F0C1F800224FF40051964801F0AA
:100A3C00BBF800224FF48041934801F0B5F8002236
:100A4C004FF40041904801F0AFF819E10022042165
:100A5C008D4801F0A9F8002208218B4801F0A4F878
:100A6C0001224FF48061884801F09EF800224FF477
:100A7C000061854801F098F800224FF480518248BB
:100A8C0001F092F800224FF400517F4801F08CF8ED
:100A9C0000224FF480417C4801F086F800224FF48C
:100AAC000041794801F080F8EAE000220421764800
:100ABC0001F07AF800220821734801F075F8002241
:100ACC004FF48061704801F06FF801224FF400611F
:100ADC006D4801F069F800224FF480516A4801F02A
:100AEC0063F800224FF40051674801F05DF80022D2
:100AFC004FF48041644801F057F800224FF4004154
:100B0C00614801F051F8BBE0002204215E4801F07D
:100B1C004BF8002208215C4801F046F800224FF403
:100B2C008061594801F040F800224FF400615648AA
:100B3C0001F03AF801224FF48051534801F034F897
:100B4C0000224FF40051504801F02EF800224FF4CF
:100B5C0080414D4801F028F800224FF400414A48EA
:100B6C0001F022F88CE000220421474801F01CF827
:100B7C0000220821444801F017F800224FF480614C
:100B8C00414801F011F800224FF400613E4801F099
:100B9C000BF800224FF480513B4801F005F801227C
:100BAC004FF40051384800F0FFFF00224FF4804111
:100BBC00354800F0F9FF00224FF40041324800F0B4
:100BCC00F3FF5DE0002204212F4800F0EDFF00222E
:100BDC0008212D4800F0E8FF00224FF480612A48DC
:100BEC0000F0E2FF00224FF40061274800F0DCFF28
:100BFC0000224FF48051244800F0D6FF00224FF41D
:100C0C000051214800F0D0FF01224FF480411E48D2
:100C1C0000F0CAFF00224FF400411B4800F0C4FF53
:100C2C002EE000220421184800F0BEFF002208210B
:100C3C00154800F0B9FF00224FF48061124800F013
:100C4C00B3FF00224FF400610F4800F0ADFF00220B
:100C5C004FF480510C4800F0A7FF00224FF40051D4
:100C6C00094800F0A1FF00224FF48041064800F033
:100C7C009BFF01224FF40041034800F095FF00BF99
:100C8C0000BF0837BD4680BD0008014080B582B06A
:100C9C0000AF78607B68072B00F23C8301A252F80E
:100CAC0023F000BFD10C0008990D0008610E00085C
:100CBC00310F0008F90F0008C1100008911100084D
:100CCC0059120008954B1B78DB09DBB21A464FF41E
:100CDC008071934800F068FF904B1B789B09DBB246
:100CEC0003F00103DBB21A464FF400718C4800F09C
:100CFC005BFF8A4B1B785B09DBB203F00103DBB2B1
:100D0C001A464FF48061864800F04EFF834B1B78E7
:100D1C001B09DBB203F00103DBB21A464FF400618E
:100D2C007F4800F041FF7D4B1B78DB08DBB203F002
:100D3C000103DBB21A464FF48051794800F034FFBE
:100D4C00764B1B789B08DBB203F00103DBB21A462F
:100D5C004FF40051724800F027FF704B1B785B0872
:100D6C00DBB203F00103DBB21A464FF480416C484E
:100D7C0000F01AFF694B1B7803F00103DBB21A4633
:100D8C004FF40041664800F00FFFC3E2634B5B7801
:100D9C00DB09DBB21A464FF48071614800F004FFA6
:100DAC005E4B5B789B09DBB203F00103DBB21A46A6
:100DBC004FF400715A4800F0F7FE584B5B785B0912
:100DCC00DBB203F00103DBB21A464FF480615448E6
:100DDC0000F0EAFE514B5B781B09DBB203F0010318
:100DEC00DBB21A464FF400614D4800F0DDFE4B4B70
:100DFC005B78DB08DBB203F00103DBB21A464FF47D
:100E0C008051474800F0D0FE444B5B789B08DBB226
:100E1C0003F00103DBB21A464FF40051404800F0D6
:100E2C00C3FE3E4B5B785B08DBB203F00103DBB225
:100E3C001A464FF480413A4800F0B6FE374B5B78C7
:100E4C0003F00103DBB21A464FF40041344800F0C2
:100E5C00ABFE5FE2314B9B78DB09DBB21A464FF4F9
:100E6C0080712F4800F0A0FE2C4B9B789B09DBB2C5
:100E7C0003F00103DBB21A464FF40071284800F06E
:100E8C0093FE264B9B785B09DBB203F00103DBB2CC
:100E9C001A464FF48061224800F086FE1F4B9B7867
:100EAC001B09DBB203F00103DBB21A464FF40061FD
:100EBC001B4800F079FE194B9B78DB08DBB203F082
:100ECC000103DBB21A464FF48051154800F06CFE5A
:100EDC00124B9B789B08DBB203F00103DBB21A4682
:100EEC004FF400510E4800F05FFE0C4B9B785B08F2
:100EFC00DBB203F00103DBB21A464FF48041084821
:100F0C0000F052FE054B9B7803F00103DBB21A464E
:100F1C004FF40041024800F047FEFBE11C000020AA
:100F2C00000C0140954BDB78DB09DBB21A464FF421
:100F3C008071934800F038FE904BDB789B09DBB254
:100F4C0003F00103DBB21A464FF400718C4800F039
:100F5C002BFE8A4BDB785B09DBB203F00103DBB2BF
:100F6C001A464FF48061864800F01EFE834BDB78F6
:100F7C001B09DBB203F00103DBB21A464FF400612C
:100F8C007F4800F011FE7D4BDB78DB08DBB203F011
:100F9C000103DBB21A464FF48051794800F004FE8D
:100FAC00764BDB789B08DBB203F00103DBB21A460D
:100FBC004FF40051724800F0F7FD704BDB785B0882
:100FCC00DBB203F00103DBB21A464FF480416C48EC
:100FDC0000F0EAFD694BDB7803F00103DBB21A4643
:100FEC004FF40041664800F0DFFD93E1634B1B7941
:100FFC00DB09DBB21A464FF48071614800F0D4FD76
:10100C005E4B1B799B09DBB203F00103DBB21A4682
:10101C004FF400715A4800F0C7FD584B1B795B091F
:10102C00DBB203F00103DBB21A464FF48061544883
:10103C0000F0BAFD514B1B791B09DBB203F0010325
:10104C00DBB21A464FF400614D4800F0ADFD4B4B3E
:10105C001B79DB08DBB203F00103DBB21A464FF459
:10106C008051474800F0A0FD444B1B799B08DBB234
:10107C0003F00103DBB21A464FF40051404800F074
:10108C0093FD3E4B1B795B08DBB203F00103DBB233
:10109C001A464FF480413A4800F086FD374B1B79D5
:1010AC0003F00103DBB21A464FF40041344800F060
:1010BC007BFD2FE1314B5B79DB09DBB21A464FF438
:1010CC0080712F4800F070FD2C4B5B799B09DBB2D3
:1010DC0003F00103DBB21A464FF40071284800F00C
:1010EC0063FD264B5B795B09DBB203F00103DBB2DA
:1010FC001A464FF48061224800F056FD1F4B5B7975
:10110C001B09DBB203F00103DBB21A464FF400619A
:10111C001B4800F049FD194B5B79DB08DBB203F08F
:10112C000103DBB21A464FF48051154800F03CFD28
:10113C00124B5B799B08DBB203F00103DBB21A465E
:10114C004FF400510E4800F02FFD0C4B5B795B08FF
:10115C00DBB203F00103DBB21A464FF480410848BE
:10116C0000F022FD054B5B7903F00103DBB21A465C
:10117C004FF40041024800F017FDCBE01C000020AA
:10118C00000C0140654B9B79DB09DBB21A464FF42E
:10119C008071634800F008FD604B9B799B09DBB2C2
:1011AC0003F00103DBB21A464FF400715C4800F007
:1011BC00FBFC5A4B9B795B09DBB203F00103DBB2FE
:1011CC001A464FF48061564800F0EEFC534B9B7965
:1011DC001B09DBB203F00103DBB21A464FF40061CA
:1011EC004F4800F0E1FC4D4B9B79DB08DBB203F080
:1011FC000103DBB21A464FF48051494800F0D4FC8D
:10120C00464B9B799B08DBB203F00103DBB21A4619
:10121C004FF40051424800F0C7FC404B9B795B08EF
:10122C00DBB203F00103DBB21A464FF480413C48B9
:10123C0000F0BAFC394B9B7903F00103DBB21A4680
:10124C004FF40041364800F0AFFC63E0334BDB79E0
:10125C00DB09DBB21A464FF48071314800F0A4FC74
:10126C002E4BDB799B09DBB203F00103DBB21A4690
:10127C004FF400712A4800F097FC284BDB795B098E
:10128C00DBB203F00103DBB21A464FF48061244851
:10129C0000F08AFC214BDB791B09DBB203F0010364
:1012AC00DBB21A464FF400611D4800F07DFC1B4B6D
:1012BC00DB79DB08DBB203F00103DBB21A464FF437
:1012CC008051174800F070FC144BDB799B08DBB2A3
:1012DC0003F00103DBB21A464FF40051104800F042
:1012EC0063FC0E4BDB795B08DBB203F00103DBB272
:1012FC001A464FF480410A4800F056FC074BDB7944
:10130C0003F00103DBB21A464FF40041044800F02D
:10131C004BFC00BF00BF0837BD4680BD1C00002041
:10132C00000C014080B485B000AF78600023FB60F6
:10133C000BE0FB687A6813441978094AFB6813447C
:10134C000A461A70FB680133FB600822FB68934263
:10135C00EFDB00BF00BF1437BD4680BC704700BF39
:10136C001C00002080B400AF72B600BFFEE7000086
:10137C0080B483B000AF7860054A7B681360054B7E
:10138C0000221A6000BF0C37BD4680BC704700BFFE
:10139C00580000205400002080B483B000AF786067
:1013AC00054A7B681360054B00221A6000BF0C379E
:1013BC00BD4680BC704700BF600000205C00002070
:1013CC0080B483B000AF7860054A7B681360054B2E
:1013DC0000221A6000BF0C37BD4680BC704700BFAE
:1013EC00680000206400002080B400AF194B1B681B
:1013FC00002B0BDD174B1B68013B164A1360154B7A
:10140C001B68002B02DC144B01221A60134B1B6867
:10141C00002B0BDD114B1B68013B104A13600F4B6B
:10142C001B68002B02DC0E4B01221A600D4B1B6853
:10143C00002B0BDD0B4B1B68013B0A4A1360094B5D
:10144C001B68002B02DC084B01221A6000BFBD4652
:10145C0080BC704758000020540000206000002021
:10146C005C000020680000206400002080B485B07F
:10147C0000AF154B9B69144A43F001039361124B67
:10148C009B6903F00103BB60BB680F4BDB690E4A21
:10149C0043F08053D3610C4BDB6903F080537B60CA
:1014AC007B680A4B5B68FB60FB6823F0E063FB60C6
:1014BC00FB6843F08063FB60044AFB68536000BF29
:1014CC001437BD4680BC704700100240000001403C
:1014DC0080B584B000AF78607B681B68B3F1804F37
:1014EC0013D10C4BDB690B4A43F00103D361094B5D
:1014FC00DB6903F00103FB60FB68002200211C2068
:10150C0000F0A1F91C2000F0BAF900BF1037BD465D
:10151C0080BD00BF0010024080B400AFFEE780B475
:10152C0000AFFEE780B400AFFEE780B400AFFEE78B
:10153C0080B400AFFEE780B400AF00BFBD4680BCF6
:10154C00704780B400AF00BFBD4680BC704780B40C
:10155C0000AF00BFBD4680BC704780B500AF00F047
:10156C007FF800BF80BD000080B500AF024800F0DE
:10157C00C5FF00BF80BD00BF6C00002080B400AF71
:10158C0000BFBD4680BC7047FFF7F8FF0B480C4905
:10159C000C4A002302E0D458C4500433C4188C42C3
:1015AC00F9D3094A094C002301E013600432A2422A
:1015BC00FBD301F0EFFAFEF7C3FD704700000020EB
:1015CC0030000020442C000830000020B80000201F
:1015DC00FEE7000080B500AF084B1B68074A43F0DC
:1015EC0010031360032000F023F90F2000F008F81B
:1015FC00FFF73CFF0023184680BD00BF00200240CF
:10160C0080B582B000AF7860124B1A68124B1B7811
:10161C0019464FF47A73B3FBF1F3B2FBF3F31846AC
:10162C0000F03BF90346002B01D001230EE07B6850
:10163C000F2B0AD8002279684FF0FF3000F003F925
:10164C00064A7B681360002300E001231846083724
:10165C00BD4680BD240000202C0000202800002066
:10166C0080B400AF054B1B781A46054B1B6813441E
:10167C00034A136000BFBD4680BC70472C0000209D
:10168C00B400002080B400AF024B1B681846BD4666
:10169C0080BC7047B400002080B485B000AF786087
:1016AC007B6803F00703FB600C4BDB68BB60BA681C
:1016BC004FF6FF031340BB60FB681A02BB68134371
:1016CC0043F0BF6343F40033BB60044ABB68D36090
:1016DC0000BF1437BD4680BC704700BF00ED00E072
:1016EC0080B400AF044BDB681B0A03F007031846F9
:1016FC00BD4680BC704700BF00ED00E080B483B0F5
:10170C0000AF0346FB7197F90730002B0BDBFB791D
:10171C0003F01F02064997F907305B09012000FA14
:10172C0002F241F8232000BF0C37BD4680BC704745
:10173C0000E100E080B483B000AF03463960FB7178
:10174C0097F90730002B0ADB3B68DAB20C4997F9A2
:10175C0007301201D2B20B4483F800230AE03B6835
:10176C00DAB20849FB7903F00F03043B1201D2B241
:10177C000B441A7600BF0C37BD4680BC704700BFC7
:10178C0000E100E000ED00E080B489B000AFF8604B
:10179C00B9607A60FB6803F00703FB61FB69C3F176
:1017AC000703042B28BF0423BB61FB690433062BFE
:1017BC0002D9FB69033B00E000237B614FF0FF3251
:1017CC00BB6902FA03F3DA43BB681A407B699A409F
:1017DC004FF0FF317B6901FA03F3D9437B680B406F
:1017EC00134318462437BD4680BC704780B582B081
:1017FC0000AF78607B68013BB3F1807F01D301239C
:10180C000FE00A4A7B68013B53600F214FF0FF3019
:10181C00FFF790FF054B00229A60044B07221A60D9
:10182C00002318460837BD4680BD00BF10E000E01D
:10183C0080B582B000AF78607868FFF72DFF00BFED
:10184C000837BD4680BD80B586B000AF0346B96091
:10185C007A60FB7300237B61FFF742FF78617A6843
:10186C00B9687869FFF790FF024697F90F30114677
:10187C001846FFF75FFF00BF1837BD4680BD80B527
:10188C0082B000AF0346FB7197F907301846FFF79B
:10189C0035FF00BF0837BD4680BD80B582B000AFB4
:1018AC0078607868FFF7A2FF034618460837BD46F4
:1018BC0080BD000080B48BB000AF7860396000232D
:1018CC007B6200233B6248E101227B6A02FA03F34C
:1018DC00FB613B681B68FA691340BB61BA69FB6921
:1018EC009A4240F037813B685B68A34A93425ED0D2
:1018FC00A14A934275D8A14A934258D09F4A934229
:10190C006FD89F4A934252D09D4A934269D89D4AC0
:10191C0093424CD09B4A934263D89B4A934246D005
:10192C00994A93425DD8122B2AD8122B59D801A26E
:10193C0052F823F0BB19000895190008A7190008E4
:10194C00E9190008EF190008EF190008EF19000851
:10195C00EF190008EF190008EF190008EF1900083B
:10196C00EF190008EF190008EF190008EF1900082B
:10197C00EF190008EF1900089D190008B1190008AB
:10198C00824A934213D02CE03B68DB683B6229E02F
:10199C003B68DB6804333B6224E03B68DB6808335C
:1019AC003B621FE03B68DB680C333B621AE03B6830
:1019BC009B68002B02D104233B6213E03B689B68BD
:1019CC00012B05D108233B627B68FA691A6109E097
:1019DC0008233B627B68FA695A6103E000233B628F
:1019EC0000E000BFBB69FF2B01D87B6801E07B687E
:1019FC0004337B61BB69FF2B02D87B6A9B0002E03E
:101A0C007B6A083B9B003B617B691A680F213B6931
:101A1C0001FA03F3DB431A40396A3B6901FA03F319
:101A2C001A437B691A603B685B6803F08053002B98
:101A3C0000F09080564B9B69554A43F0010393612B
:101A4C00534B9B6903F00103BB60BB68514A7B6A33
:101A5C009B08023352F82330FB607B6A03F00303CC
:101A6C009B000F2202FA03F3DB43FA681340FB607E
:101A7C007B68494A93420DD07B68484A934207D011
:101A8C007B68474A934201D1022304E0032302E01E
:101A9C00012300E000237A6A02F0030292009340D3
:101AAC00FA681343FB603B497B6A9B080233FA6874
:101ABC0041F823203B685B6803F48013002B06D0AD
:101ACC00384B9A683749BB6913438B6006E0354B3A
:101ADC009A68BB69DB43334913408B603B685B6896
:101AEC0003F40013002B06D02E4BDA682D49BB698A
:101AFC001343CB6006E02B4BDA68BB69DB43294907
:101B0C001340CB603B685B6803F40033002B06D0BA
:101B1C00244B5A682349BB6913434B6006E0214BA5
:101B2C005A68BB69DB431F4913404B603B685B68D9
:101B3C0003F48033002B06D01A4B1A681949BB6981
:101B4C0013430B6006E0174B1A68BB69DB4315495E
:101B5C0013400B607B6A01337B623B681A687B6ABB
:101B6C0022FA03F3002B7FF4AFAE00BF00BF2C377B
:101B7C00BD4680BC704700BF000032100000311021
:101B8C0000002210000021100000121000001110A3
:101B9C00001002400000014000080140000C014010
:101BAC00001001400004014080B483B000AF7860A5
:101BBC000B467B8013467B707B78002B03D07A8896
:101BCC007B681A6103E07B881A047B681A6100BF8A
:101BDC000C37BD4680BC704780B485B000AF7860D0
:101BEC000B467B807B68DB68FB607A88FB68134064
:101BFC001A04FB68D9437B880B401A437B681A6133
:101C0C0000BF1437BD4680BC7047000080B586B05D
:101C1C0000AF78607B68002B01D101236CE27B68FC
:101C2C001B6803F00103002B00F08780924B5B686C
:101C3C0003F00C03042B0CD08F4B5B6803F00C03EC
:101C4C00082B12D18C4B5B6803F48033B3F5803FC7
:101C5C000BD1894B1B6803F40033002B6CD07B68D1
:101C6C005B68002B68D1012346E27B685B68B3F5A7
:101C7C00803F06D1804B1B687F4A43F4803313604E
:101C8C002EE07B685B68002B0CD17B4B1B687A4A7F
:101C9C0023F480331360784B1B68774A23F480233A
:101CAC0013601DE07B685B68B3F5A02F0CD1724B01
:101CBC001B68714A43F4802313606F4B1B686E4A98
:101CCC0043F4803313600BE06B4B1B686A4A23F4BC
:101CDC0080331360684B1B68674A23F480231360BE
:101CEC007B685B68002B13D0FFF7CCFC386108E0F5
:101CFC00FFF7C8FC02463B69D31A642B01D90323B6
:101D0C00FAE15D4B1B6803F40033002BF0D014E0B8
:101D1C00FFF7B8FC386108E0FFF7B4FC02463B69FA
:101D2C00D31A642B01D90323E6E1534B1B6803F44C
:101D3C000033002BF0D100E000BF7B681B6803F080
:101D4C000203002B63D04C4B5B6803F00C03002B9D
:101D5C000BD0494B5B6803F00C03082B1CD1464B92
:101D6C005B6803F48033002B16D1434B1B6803F0E4
:101D7C000203002B05D07B681B69012B01D00123CA
:101D8C00BAE13D4B1B6823F0F8027B685B69DB0012
:101D9C00394913430B603AE07B681B69002B20D058
:101DAC00364B01221A60FFF76DFC386108E0FFF733
:101DBC0069FC02463B69D31A022B01D903239BE130
:101DCC002D4B1B6803F00203002BF0D02A4B1B6831
:101DDC0023F0F8027B685B69DB00274913430B6037
:101DEC0015E0264B00221A60FFF74CFC386108E026
:101DFC00FFF748FC02463B69D31A022B01D9032397
:101E0C007AE11D4B1B6803F00203002BF0D17B68B9
:101E1C001B6803F00803002B3AD07B689B69002BEE
:101E2C0019D0174B01221A60FFF72CFC386108E01F
:101E3C00FFF728FC02463B69D31A022B01D9032376
:101E4C005AE10D4B5B6A03F00203002BF0D001202A
:101E5C0000F09AFA1CE00A4B00221A60FFF712FC01
:101E6C0038610FE0FFF70EFC02463B69D31A022BD8
:101E7C0008D9032340E100BF001002400000424299
:101E8C00800442429E4B5B6A03F00203002BE9D1B3
:101E9C007B681B6803F00403002B00F0A680002372
:101EAC00FB75974BDB6903F08053002B0DD1944BE2
:101EBC00DB69934A43F08053D361914BDB6903F0A8
:101ECC008053BB60BB680123FB758E4B1B6803F40E
:101EDC008073002B18D18B4B1B688A4A43F4807398
:101EEC001360FFF7CFFB386108E0FFF7CBFB02462E
:101EFC003B69D31A642B01D90323FDE0814B1B688A
:101F0C0003F48073002BF0D07B68DB68012B06D1C7
:101F1C007B4B1B6A7A4A43F0010313622DE07B680A
:101F2C00DB68002B0CD1764B1B6A754A23F001033E
:101F3C001362734B1B6A724A23F0040313621CE096
:101F4C007B68DB68052B0CD16D4B1B6A6C4A43F02C
:101F5C00040313626A4B1B6A694A43F00103136260
:101F6C000BE0674B1B6A664A23F001031362644B58
:101F7C001B6A634A23F0040313627B68DB68002B43
:101F8C0015D0FFF77FFB38610AE0FFF77BFB0246B9
:101F9C003B69D31A41F28832934201D90323ABE057
:101FAC00574B1B6A03F00203002BEED014E0FFF733
:101FBC0069FB38610AE0FFF765FB02463B69D31AFF
:101FCC0041F28832934201D9032395E04C4B1B6AB2
:101FDC0003F00203002BEED1FB7D012B05D1484B06
:101FEC00DB69474A23F08053D3617B68DB69002BA4
:101FFC0000F08180424B5B6803F00C03082B61D02E
:10200C007B68DB69022B46D13F4B00221A60FFF73D
:10201C0039FB386108E0FFF735FB02463B69D31A00
:10202C00022B01D9032367E0354B1B6803F00073C7
:10203C00002BF0D17B681B6AB3F5803F08D1304B85
:10204C005B6823F400327B689B682D4913434B601B
:10205C002B4B5B6823F474127B68196A7B685B6A90
:10206C000B43274913434B60274B01221A60FFF7A0
:10207C0009FB386108E0FFF705FB02463B69D31A00
:10208C00022B01D9032337E01D4B1B6803F00073AF
:10209C00002BF0D02FE01C4B00221A60FFF7F2FA55
:1020AC00386108E0FFF7EEFA02463B69D31A022BBF
:1020BC0001D9032320E0124B1B6803F00073002BA3
:1020CC00F0D118E07B68DB69012B01D1012313E00F
:1020DC000B4B5B68FB60FB6803F480327B681B6A0C
:1020EC009A4206D1FB6803F470127B685B6A9A42D1
:1020FC0001D0012300E0002318461837BD4680BDEF
:10210C0000100240007000406000424280B584B074
:10211C0000AF786039607B68002B01D10123D0E0DF
:10212C006A4B1B6803F007033A689A4210D9674B55
:10213C001B6823F0070265493B6813430B60634B34
:10214C001B6803F007033A689A4201D00123B8E0F8
:10215C007B681B6803F00203002B20D07B681B6894
:10216C0003F00403002B05D0594B5B68584A43F429
:10217C00E06353607B681B6803F00803002B05D0F9
:10218C00534B5B68524A43F460535360504B5B684B
:10219C0023F0F0027B689B684D4913434B607B68CE
:1021AC001B6803F00103002B40D07B685B68012B9C
:1021BC0007D1474B1B6803F40033002B15D10123C7
:1021CC007FE07B685B68022B07D1414B1B6803F0F7
:1021DC000073002B09D1012373E03D4B1B6803F006
:1021EC000203002B01D101236BE0394B5B6823F018
:1021FC0003027B685B68364913434B60FFF742FA76
:10220C00F8600AE0FFF73EFA0246FB68D31A41F287
:10221C008832934201D9032353E02D4B5B6803F0C2
:10222C000C027B685B689B009A42EBD1274B1B68C6
:10223C0003F007033A689A4210D2244B1B6823F030
:10224C00070222493B6813430B60204B1B6803F0C9
:10225C0007033A689A4201D0012332E07B681B687D
:10226C0003F00403002B08D0194B5B6823F4E062E5
:10227C007B68DB68164913434B607B681B6803F073
:10228C000803002B09D0124B5B6823F460527B6867
:10229C001B69DB000E4913434B6000F021F802462A
:1022AC000B4B5B681B0903F00F030A49CB5C22FA4A
:1022BC0003F3094A1360094B1B681846FFF7A0F992
:1022CC00002318461037BD4680BD00BF00200240D9
:1022DC0000100240182C00082400002028000020C8
:1022EC0080B487B000AF0023FB600023BB600023E9
:1022FC007B6100237B6000233B611E4B5B68FB60B2
:10230C00FB6803F00C03042B02D0082B03D027E04E
:10231C00194B3B6127E0FB689B0C03F00F03174A3A
:10232C00D35C7B60FB6803F48033002B10D0114B23
:10233C005B685B0C03F00103114AD35CBB607B68E8
:10234C000D4A02FB03F2BB68B2FBF3F37B6104E0C2
:10235C007B680C4A02FB03F37B617B693B6102E007
:10236C00054B3B6100BF3B6918461C37BD4680BC22
:10237C00704700BF0010024000127A00282C0008A1
:10238C00382C000800093D0080B485B000AF78609F
:10239C000A4B1B680A4AA2FB03235B0A7A6802FBFE
:1023AC0003F3FB6000BFFB685A1EFA60002BF9D1E7
:1023BC0000BF00BF1437BD4680BC7047240000200E
:1023CC00D34D621080B582B000AF78607B68002B73
:1023DC0001D1012341E07B6893F83D30DBB2002B47
:1023EC0006D17B68002283F83C207868FFF770F8F0
:1023FC007B68022283F83D207B681A687B68043373
:10240C001946104600F06EFA7B68012283F84620CC
:10241C007B68012283F83E207B68012283F83F20F1
:10242C007B68012283F840207B68012283F84120DD
:10243C007B68012283F842207B68012283F84320C9
:10244C007B68012283F844207B68012283F84520B5
:10245C007B68012283F83D20002318460837BD46CF
:10246C0080BD000080B485B000AF78607B6893F8C5
:10247C003D30DBB2012B01D0012335E07B68022219
:10248C0083F83D207B681B68DA687B681B6842F028
:10249C000102DA607B681B68164A934209D07B689C
:1024AC001B68B3F1804F04D07B681B68124A9342BF
:1024BC0011D17B681B689B6803F00703FB60FB680A
:1024CC00062B10D07B681B681A687B681B6842F06F
:1024DC0001021A6007E07B681B681A687B681B683E
:1024EC0042F001021A60002318461437BD4680BC26
:1024FC00704700BF002C01400004004080B582B042
:10250C0000AF78607B681B681B6903F00203022B29
:10251C0022D17B681B68DB6803F00203022B1BD102
:10252C007B681B686FF002021A617B6801221A77C4
:10253C007B681B689B6903F00303002B03D078684E
:10254C0000F0B4F905E0786800F0A7F9786800F0BD
:10255C00B6F97B6800221A777B681B681B6903F04D
:10256C000403042B22D17B681B68DB6803F0040393
:10257C00042B1BD17B681B686FF004021A617B680B
:10258C0002221A777B681B689B6903F44073002B4B
:10259C0003D0786800F08AF905E0786800F07DF9DE
:1025AC00786800F08CF97B6800221A777B681B68CE
:1025BC001B6903F00803082B22D17B681B68DB68BE
:1025CC0003F00803082B1BD17B681B686FF0080213
:1025DC001A617B6804221A777B681B68DB6903F03D
:1025EC000303002B03D0786800F060F905E07868ED
:1025FC0000F053F9786800F062F97B6800221A77D2
:10260C007B681B681B6903F01003102B22D17B68BD
:10261C001B68DB6803F01003102B1BD17B681B6855
:10262C006FF010021A617B6808221A777B681B68AE
:10263C00DB6903F44073002B03D0786800F036F9A3
:10264C0005E0786800F029F9786800F038F97B68C3
:10265C0000221A777B681B681B6903F00103012BAE
:10266C000ED17B681B68DB6803F00103012B07D1DB
:10267C007B681B686FF001021A617868FDF7E4FE55
:10268C007B681B681B6903F08003802B0ED17B6871
:10269C001B68DB6803F08003802B07D17B681B6809
:1026AC006FF080021A61786800F06BFA7B681B6827
:1026BC001B6903F04003402B0ED17B681B68DB6861
:1026CC0003F04003402B07D17B681B686FF040027E
:1026DC001A61786800F0FCF87B681B681B6903F0D2
:1026EC002003202B0ED17B681B68DB6803F02003D2
:1026FC00202B07D17B681B686FF020021A61786869
:10270C0000F036FA00BF0837BD4680BD80B584B0F6
:10271C0000AF786039600023FB737B6893F83C3022
:10272C00012B01D10223B4E07B68012283F83C2009
:10273C007B68022283F83D207B681B689B68BB602A
:10274C00BB6823F07703BB60BB6823F47F43BB609B
:10275C007B681B68BA689A603B681B68B3F5005FBE
:10276C003ED0B3F5005F00F28780B3F5805F00F0D8
:10277C008680B3F5805F7FD8702B1AD0702B7BD8F6
:10278C00602B50D0602B77D8502B3CD0502B73D86B
:10279C00402B58D0402B6FD8302B64D0302B6BD8BB
:1027AC00202B60D0202B67D8002B5CD0102B5AD05C
:1027BC0062E07B6818683B6899683B685A683B68BC
:1027CC00DB6800F05EF97B681B689B68BB60BB68CC
:1027DC0043F07703BB607B681B68BA689A604FE074
:1027EC007B6818683B6899683B685A683B68DB688B
:1027FC0000F047F97B681B689A687B681B6842F499
:10280C0080429A603CE07B6818683B6859683B687A
:10281C00DB681A4600F0BEF87B681B68502118462E
:10282C0000F015F92CE07B6818683B6859683B6828
:10283C00DB681A4600F0DCF87B681B6860211846E0
:10284C0000F005F91CE07B6818683B6859683B6828
:10285C00DB681A4600F09EF87B681B68402118461E
:10286C0000F0F5F80CE07B681A683B681B681946A9
:10287C00104600F0ECF803E00123FB7300E000BF0E
:10288C007B68012283F83D207B68002283F83C2082
:10289C00FB7B18461037BD4680BD80B483B000AFBB
:1028AC00786000BF0C37BD4680BC704780B483B0E5
:1028BC0000AF786000BF0C37BD4680BC704780B459
:1028CC0083B000AF786000BF0C37BD4680BC70474A
:1028DC0080B483B000AF786000BF0C37BD4680BCBD
:1028EC007047000080B485B000AF786039607B68B9
:1028FC001B68FB607B68254A934207D07B68B3F169
:10290C00804F03D07B68224A934208D1FB6823F0A6
:10291C007003FB603B685B68FA681343FB607B6881
:10292C001A4A934207D07B68B3F1804F03D07B687F
:10293C00174A934208D1FB6823F44073FB603B6851
:10294C00DB68FA681343FB60FB6823F080023B688A
:10295C005B691343FB607B68FA681A603B689A6892
:10296C007B68DA623B681A687B689A627B68074A04
:10297C00934203D13B681A697B681A637B68012216
:10298C005A6100BF1437BD4680BC7047002C014013
:10299C000004004080B487B000AFF860B9607A6082
:1029AC00FB681B6A7B61FB681B6A23F00102FB68F6
:1029BC001A62FB689B693B613B6923F0F0033B6146
:1029CC007B681B013A6913433B617B6923F00A0363
:1029DC007B617A69BB6813437B61FB683A699A61D6
:1029EC00FB687A691A6200BF1C37BD4680BC704711
:1029FC0080B487B000AFF860B9607A60FB681B6A7E
:102A0C007B61FB681B6A23F01002FB681A62FB688F
:102A1C009B693B613B6923F470433B617B681B03FF
:102A2C003A6913433B617B6923F0A0037B61BB686C
:102A3C001B017A6913437B61FB683A699A61FB68F5
:102A4C007A691A6200BF1C37BD4680BC704780B4DF
:102A5C0085B000AF786039607B689B68FB60FB6871
:102A6C0023F07003FB603A68FB68134343F00703E1
:102A7C00FB607B68FA689A6000BF1437BD4680BC67
:102A8C00704780B487B000AFF860B9607A603B6083
:102A9C00FB689B687B617B6923F47F437B613B68AC
:102AAC001A027B681A43BB6813437A6913437B6130
:102ABC00FB687A699A6000BF1C37BD4680BC7047C2
:102ACC0080B485B000AF786039607B6893F83C3097
:102ADC00012B01D1022341E07B68012283F83C20C9
:102AEC007B68022283F83D207B681B685B68FB6077
:102AFC007B681B689B68BB60FB6823F07003FB6002
:102B0C003B681B68FA681343FB607B681B68FA68B8
:102B1C005A607B681B68144A934209D07B681B6817
:102B2C00B3F1804F04D07B681B68104A93420CD1E0
:102B3C00BB6823F08003BB603B685B68BA681343D7
:102B4C00BB607B681B68BA689A607B68012283F85B
:102B5C003D207B68002283F83C2000231846143764
:102B6C00BD4680BC704700BF002C014000040040F3
:102B7C0080B483B000AF786000BF0C37BD4680BC1A
:102B8C00704780B483B000AF786000BF0C37BD468F
:102B9C0080BC704770B500260C4D0D4C641BA41006
:102BAC00A64209D100F022F800260A4D0A4C641BFB
:102BBC00A410A64205D170BD55F8043B98470136C8
:102BCC00EEE755F8043B98470136F2E73C2C000839
:102BDC003C2C00083C2C0008402C00080346024406
:102BEC00934200D1704703F8011BF9E7F8B500BF19
:102BFC00F8BC08BC9E467047F8B500BFF8BC08BCD2
:042C0C009E46704729
:102C1000003F7FCCCC7F3F000000000000000000A0
:102C20000102030406070809020304050607080950
:0C2C30000A0B0C0D0E0F1010010200002A
:042C3C00310100085A
:042C40000D0100087A
:102C44000100000002000000030000000400000076
:102C54000F0000000800000032000000010203041D
:102C6400050607080024F40010000000010000001D
:040000050800159545
:00000001FF
